{
  "contractName": "Identity",
  "abi": [
    {
      "inputs": [],
      "stateMutability": "nonpayable",
      "type": "constructor"
    },
    {
      "inputs": [],
      "name": "contractOwner",
      "outputs": [
        {
          "internalType": "address",
          "name": "",
          "type": "address"
        }
      ],
      "stateMutability": "view",
      "type": "function",
      "constant": true
    },
    {
      "inputs": [
        {
          "internalType": "uint256",
          "name": "",
          "type": "uint256"
        }
      ],
      "name": "userAddresses",
      "outputs": [
        {
          "internalType": "address",
          "name": "",
          "type": "address"
        }
      ],
      "stateMutability": "view",
      "type": "function",
      "constant": true
    },
    {
      "inputs": [
        {
          "internalType": "address",
          "name": "",
          "type": "address"
        }
      ],
      "name": "users",
      "outputs": [
        {
          "internalType": "string",
          "name": "name",
          "type": "string"
        },
        {
          "internalType": "string",
          "name": "ipfsHash",
          "type": "string"
        },
        {
          "internalType": "enum Identity.Role",
          "name": "role",
          "type": "uint8"
        },
        {
          "internalType": "bool",
          "name": "isVerified",
          "type": "bool"
        }
      ],
      "stateMutability": "view",
      "type": "function",
      "constant": true
    },
    {
      "inputs": [
        {
          "internalType": "string",
          "name": "_name",
          "type": "string"
        },
        {
          "internalType": "string",
          "name": "_ipfsHash",
          "type": "string"
        },
        {
          "internalType": "enum Identity.Role",
          "name": "_role",
          "type": "uint8"
        }
      ],
      "name": "register",
      "outputs": [],
      "stateMutability": "nonpayable",
      "type": "function"
    },
    {
      "inputs": [
        {
          "internalType": "string",
          "name": "_name",
          "type": "string"
        },
        {
          "internalType": "string",
          "name": "_ipfsHash",
          "type": "string"
        }
      ],
      "name": "updateUser",
      "outputs": [],
      "stateMutability": "nonpayable",
      "type": "function"
    },
    {
      "inputs": [
        {
          "internalType": "address",
          "name": "_user",
          "type": "address"
        }
      ],
      "name": "getUser",
      "outputs": [
        {
          "internalType": "string",
          "name": "",
          "type": "string"
        },
        {
          "internalType": "string",
          "name": "",
          "type": "string"
        },
        {
          "internalType": "enum Identity.Role",
          "name": "",
          "type": "uint8"
        },
        {
          "internalType": "bool",
          "name": "",
          "type": "bool"
        }
      ],
      "stateMutability": "view",
      "type": "function",
      "constant": true
    },
    {
      "inputs": [],
      "name": "getAllUsers",
      "outputs": [
        {
          "internalType": "address[]",
          "name": "",
          "type": "address[]"
        }
      ],
      "stateMutability": "view",
      "type": "function",
      "constant": true
    },
    {
      "inputs": [
        {
          "internalType": "address",
          "name": "_user",
          "type": "address"
        },
        {
          "internalType": "enum Identity.Role",
          "name": "_role",
          "type": "uint8"
        }
      ],
      "name": "setUserRole",
      "outputs": [],
      "stateMutability": "nonpayable",
      "type": "function"
    },
    {
      "inputs": [
        {
          "internalType": "address",
          "name": "_user",
          "type": "address"
        }
      ],
      "name": "getUserRole",
      "outputs": [
        {
          "internalType": "enum Identity.Role",
          "name": "",
          "type": "uint8"
        }
      ],
      "stateMutability": "view",
      "type": "function",
      "constant": true
    },
    {
      "inputs": [
        {
          "internalType": "address",
          "name": "_user",
          "type": "address"
        }
      ],
      "name": "verifyUser",
      "outputs": [],
      "stateMutability": "nonpayable",
      "type": "function"
    }
  ],
  "bytecode": "0x608060405234801561001057600080fd5b5033600260006101000a81548173ffffffffffffffffffffffffffffffffffffffff021916908373ffffffffffffffffffffffffffffffffffffffff16021790555060036000803373ffffffffffffffffffffffffffffffffffffffff1673ffffffffffffffffffffffffffffffffffffffff16815260200190815260200160002060020160006101000a81548160ff021916908360038111156100b7576100b66100c1565b5b02179055506100f0565b7f4e487b7100000000000000000000000000000000000000000000000000000000600052602160045260246000fd5b611938806100ff6000396000f3fe608060405234801561001057600080fd5b506004361061009e5760003560e01c8063a87430ba11610066578063a87430ba1461016e578063b3f90e0a146101a1578063ce606ee0146101bd578063dd4a2425146101db578063e2842d79146101f75761009e565b806303a69611146100a357806327820851146100bf5780634d813120146100ef578063502c9bd51461010b5780636f77926b1461013b575b600080fd5b6100bd60048036038101906100b89190610e40565b610215565b005b6100d960048036038101906100d49190610e80565b6103c6565b6040516100e69190610f24565b60405180910390f35b61010960048036038101906101049190610e80565b61041e565b005b61012560048036038101906101209190610f75565b6105f4565b6040516101329190610fb1565b60405180910390f35b61015560048036038101906101509190610e80565b610633565b6040516101659493929190611077565b60405180910390f35b61018860048036038101906101839190610e80565b610824565b6040516101989493929190611077565b60405180910390f35b6101bb60048036038101906101b691906111ff565b61097e565b005b6101c5610bc3565b6040516101d29190610fb1565b60405180910390f35b6101f560048036038101906101f0919061128a565b610be9565b005b6101ff610d1b565b60405161020c91906113c0565b60405180910390f35b60038081111561022857610227610ead565b5b6000803373ffffffffffffffffffffffffffffffffffffffff1673ffffffffffffffffffffffffffffffffffffffff16815260200190815260200160002060020160009054906101000a900460ff16600381111561028957610288610ead565b5b146102c9576040517f08c379a00000000000000000000000000000000000000000000000000000000081526004016102c090611454565b60405180910390fd5b60008060008473ffffffffffffffffffffffffffffffffffffffff1673ffffffffffffffffffffffffffffffffffffffff1681526020019081526020016000206000018054610317906114a3565b905003610359576040517f08c379a000000000000000000000000000000000000000000000000000000000815260040161035090611520565b60405180910390fd5b806000808473ffffffffffffffffffffffffffffffffffffffff1673ffffffffffffffffffffffffffffffffffffffff16815260200190815260200160002060020160006101000a81548160ff021916908360038111156103bd576103bc610ead565b5b02179055505050565b60008060008373ffffffffffffffffffffffffffffffffffffffff1673ffffffffffffffffffffffffffffffffffffffff16815260200190815260200160002060020160009054906101000a900460ff169050919050565b60008060003373ffffffffffffffffffffffffffffffffffffffff1673ffffffffffffffffffffffffffffffffffffffff16815260200190815260200160002060020160009054906101000a900460ff16905060038081111561048457610483610ead565b5b81600381111561049757610496610ead565b5b14806104c75750600260038111156104b2576104b1610ead565b5b8160038111156104c5576104c4610ead565b5b145b610506576040517f08c379a00000000000000000000000000000000000000000000000000000000081526004016104fd9061158c565b60405180910390fd5b60008060008473ffffffffffffffffffffffffffffffffffffffff1673ffffffffffffffffffffffffffffffffffffffff1681526020019081526020016000206000018054610554906114a3565b905003610596576040517f08c379a000000000000000000000000000000000000000000000000000000000815260040161058d90611520565b60405180910390fd5b60016000808473ffffffffffffffffffffffffffffffffffffffff1673ffffffffffffffffffffffffffffffffffffffff16815260200190815260200160002060020160016101000a81548160ff0219169083151502179055505050565b6001818154811061060457600080fd5b906000526020600020016000915054906101000a900473ffffffffffffffffffffffffffffffffffffffff1681565b60608060008060008060008773ffffffffffffffffffffffffffffffffffffffff1673ffffffffffffffffffffffffffffffffffffffff168152602001908152602001600020604051806080016040529081600082018054610694906114a3565b80601f01602080910402602001604051908101604052809291908181526020018280546106c0906114a3565b801561070d5780601f106106e25761010080835404028352916020019161070d565b820191906000526020600020905b8154815290600101906020018083116106f057829003601f168201915b50505050508152602001600182018054610726906114a3565b80601f0160208091040260200160405190810160405280929190818152602001828054610752906114a3565b801561079f5780601f106107745761010080835404028352916020019161079f565b820191906000526020600020905b81548152906001019060200180831161078257829003601f168201915b505050505081526020016002820160009054906101000a900460ff1660038111156107cd576107cc610ead565b5b60038111156107df576107de610ead565b5b81526020016002820160019054906101000a900460ff161515151581525050905080600001518160200151826040015183606001519450945094509450509193509193565b6000602052806000526040600020600091509050806000018054610847906114a3565b80601f0160208091040260200160405190810160405280929190818152602001828054610873906114a3565b80156108c05780601f10610895576101008083540402835291602001916108c0565b820191906000526020600020905b8154815290600101906020018083116108a357829003601f168201915b5050505050908060010180546108d5906114a3565b80601f0160208091040260200160405190810160405280929190818152602001828054610901906114a3565b801561094e5780601f106109235761010080835404028352916020019161094e565b820191906000526020600020905b81548152906001019060200180831161093157829003601f168201915b5050505050908060020160009054906101000a900460ff16908060020160019054906101000a900460ff16905084565b60008060003373ffffffffffffffffffffffffffffffffffffffff1673ffffffffffffffffffffffffffffffffffffffff16815260200190815260200160002060000180546109cc906114a3565b905014610a0e576040517f08c379a0000000000000000000000000000000000000000000000000000000008152600401610a05906115f8565b60405180910390fd5b6040518060800160405280848152602001838152602001826003811115610a3857610a37610ead565b5b8152602001600015158152506000803373ffffffffffffffffffffffffffffffffffffffff1673ffffffffffffffffffffffffffffffffffffffff1681526020019081526020016000206000820151816000019081610a9791906117c4565b506020820151816001019081610aad91906117c4565b5060408201518160020160006101000a81548160ff02191690836003811115610ad957610ad8610ead565b5b021790555060608201518160020160016101000a81548160ff0219169083151502179055509050506001339080600181540180825580915050600190039060005260206000200160009091909190916101000a81548173ffffffffffffffffffffffffffffffffffffffff021916908373ffffffffffffffffffffffffffffffffffffffff16021790555060008060003373ffffffffffffffffffffffffffffffffffffffff1673ffffffffffffffffffffffffffffffffffffffff16815260200190815260200160002060020160016101000a81548160ff021916908315150217905550505050565b600260009054906101000a900473ffffffffffffffffffffffffffffffffffffffff1681565b60008060003373ffffffffffffffffffffffffffffffffffffffff1673ffffffffffffffffffffffffffffffffffffffff1681526020019081526020016000206000018054610c37906114a3565b905003610c79576040517f08c379a0000000000000000000000000000000000000000000000000000000008152600401610c70906118e2565b60405180910390fd5b816000803373ffffffffffffffffffffffffffffffffffffffff1673ffffffffffffffffffffffffffffffffffffffff1681526020019081526020016000206000019081610cc791906117c4565b50806000803373ffffffffffffffffffffffffffffffffffffffff1673ffffffffffffffffffffffffffffffffffffffff1681526020019081526020016000206001019081610d1691906117c4565b505050565b60606001805480602002602001604051908101604052809291908181526020018280548015610d9f57602002820191906000526020600020905b8160009054906101000a900473ffffffffffffffffffffffffffffffffffffffff1673ffffffffffffffffffffffffffffffffffffffff1681526020019060010190808311610d55575b5050505050905090565b6000604051905090565b600080fd5b600080fd5b600073ffffffffffffffffffffffffffffffffffffffff82169050919050565b6000610de882610dbd565b9050919050565b610df881610ddd565b8114610e0357600080fd5b50565b600081359050610e1581610def565b92915050565b60048110610e2857600080fd5b50565b600081359050610e3a81610e1b565b92915050565b60008060408385031215610e5757610e56610db3565b5b6000610e6585828601610e06565b9250506020610e7685828601610e2b565b9150509250929050565b600060208284031215610e9657610e95610db3565b5b6000610ea484828501610e06565b91505092915050565b7f4e487b7100000000000000000000000000000000000000000000000000000000600052602160045260246000fd5b60048110610eed57610eec610ead565b5b50565b6000819050610efe82610edc565b919050565b6000610f0e82610ef0565b9050919050565b610f1e81610f03565b82525050565b6000602082019050610f396000830184610f15565b92915050565b6000819050919050565b610f5281610f3f565b8114610f5d57600080fd5b50565b600081359050610f6f81610f49565b92915050565b600060208284031215610f8b57610f8a610db3565b5b6000610f9984828501610f60565b91505092915050565b610fab81610ddd565b82525050565b6000602082019050610fc66000830184610fa2565b92915050565b600081519050919050565b600082825260208201905092915050565b60005b83811015611006578082015181840152602081019050610feb565b60008484015250505050565b6000601f19601f8301169050919050565b600061102e82610fcc565b6110388185610fd7565b9350611048818560208601610fe8565b61105181611012565b840191505092915050565b60008115159050919050565b6110718161105c565b82525050565b600060808201905081810360008301526110918187611023565b905081810360208301526110a58186611023565b90506110b46040830185610f15565b6110c16060830184611068565b95945050505050565b600080fd5b600080fd5b7f4e487b7100000000000000000000000000000000000000000000000000000000600052604160045260246000fd5b61110c82611012565b810181811067ffffffffffffffff8211171561112b5761112a6110d4565b5b80604052505050565b600061113e610da9565b905061114a8282611103565b919050565b600067ffffffffffffffff82111561116a576111696110d4565b5b61117382611012565b9050602081019050919050565b82818337600083830152505050565b60006111a261119d8461114f565b611134565b9050828152602081018484840111156111be576111bd6110cf565b5b6111c9848285611180565b509392505050565b600082601f8301126111e6576111e56110ca565b5b81356111f684826020860161118f565b91505092915050565b60008060006060848603121561121857611217610db3565b5b600084013567ffffffffffffffff81111561123657611235610db8565b5b611242868287016111d1565b935050602084013567ffffffffffffffff81111561126357611262610db8565b5b61126f868287016111d1565b925050604061128086828701610e2b565b9150509250925092565b600080604083850312156112a1576112a0610db3565b5b600083013567ffffffffffffffff8111156112bf576112be610db8565b5b6112cb858286016111d1565b925050602083013567ffffffffffffffff8111156112ec576112eb610db8565b5b6112f8858286016111d1565b9150509250929050565b600081519050919050565b600082825260208201905092915050565b6000819050602082019050919050565b61133781610ddd565b82525050565b6000611349838361132e565b60208301905092915050565b6000602082019050919050565b600061136d82611302565b611377818561130d565b93506113828361131e565b8060005b838110156113b357815161139a888261133d565b97506113a583611355565b925050600181019050611386565b5085935050505092915050565b600060208201905081810360008301526113da8184611362565b905092915050565b7f5965746b6973697a2065726973696d3a2041646d696e20646567696c73696e6960008201527f7a00000000000000000000000000000000000000000000000000000000000000602082015250565b600061143e602183610fd7565b9150611449826113e2565b604082019050919050565b6000602082019050818103600083015261146d81611431565b9050919050565b7f4e487b7100000000000000000000000000000000000000000000000000000000600052602260045260246000fd5b600060028204905060018216806114bb57607f821691505b6020821081036114ce576114cd611474565b5b50919050565b7f4b756c6c616e6963692062756c756e616d616469210000000000000000000000600082015250565b600061150a601583610fd7565b9150611515826114d4565b602082019050919050565b60006020820190508181036000830152611539816114fd565b9050919050565b7f45726973696d20726564646564696c6469000000000000000000000000000000600082015250565b6000611576601183610fd7565b915061158182611540565b602082019050919050565b600060208201905081810360008301526115a581611569565b9050919050565b7f4275206164726573207a6174656e206b617969746c6921000000000000000000600082015250565b60006115e2601783610fd7565b91506115ed826115ac565b602082019050919050565b60006020820190508181036000830152611611816115d5565b9050919050565b60008190508160005260206000209050919050565b60006020601f8301049050919050565b600082821b905092915050565b60006008830261167a7fffffffffffffffffffffffffffffffffffffffffffffffffffffffffffffffff8261163d565b611684868361163d565b95508019841693508086168417925050509392505050565b6000819050919050565b60006116c16116bc6116b784610f3f565b61169c565b610f3f565b9050919050565b6000819050919050565b6116db836116a6565b6116ef6116e7826116c8565b84845461164a565b825550505050565b600090565b6117046116f7565b61170f8184846116d2565b505050565b5b81811015611733576117286000826116fc565b600181019050611715565b5050565b601f8211156117785761174981611618565b6117528461162d565b81016020851015611761578190505b61177561176d8561162d565b830182611714565b50505b505050565b600082821c905092915050565b600061179b6000198460080261177d565b1980831691505092915050565b60006117b4838361178a565b9150826002028217905092915050565b6117cd82610fcc565b67ffffffffffffffff8111156117e6576117e56110d4565b5b6117f082546114a3565b6117fb828285611737565b600060209050601f83116001811461182e576000841561181c578287015190505b61182685826117a8565b86555061188e565b601f19841661183c86611618565b60005b828110156118645784890151825560018201915060208501945060208101905061183f565b86831015611881578489015161187d601f89168261178a565b8355505b6001600288020188555050505b505050505050565b7f4b617969742062756c756e616d61646921000000000000000000000000000000600082015250565b60006118cc601183610fd7565b91506118d782611896565b602082019050919050565b600060208201905081810360008301526118fb816118bf565b905091905056fea26469706673582212205b224f44755652cebce46ac211b11c0b2475431238e2b8ab0f44735c1a382b9664736f6c63430008130033",
  "immutableReferences": {},
  "source": "// SPDX-License-Identifier: MIT\r\npragma solidity ^0.8.19;\r\n\r\ncontract Identity {\r\n    enum Role { None, Citizen, Officer, Admin }\r\n\r\n    struct User {\r\n        string name;\r\n        string ipfsHash;\r\n        Role role;\r\n        bool isVerified;\r\n    }\r\n\r\n    mapping(address => User) public users;\r\n    address[] public userAddresses;\r\n\r\n    address public contractOwner;\r\n\r\n    constructor() {\r\n        contractOwner = msg.sender;\r\n        users[msg.sender].role = Role.Admin;\r\n    }\r\n\r\n    modifier onlyAdmin() {\r\n        require(users[msg.sender].role == Role.Admin, \"Yetkisiz erisim: Admin degilsiniz\");\r\n        _;\r\n    }\r\n\r\n    modifier onlyOfficerOrAdmin() {\r\n        Role r = users[msg.sender].role;\r\n        require(r == Role.Admin || r == Role.Officer, \"Erisim reddedildi\");\r\n        _;\r\n    }\r\n\r\n    function register(string memory _name, string memory _ipfsHash, Role _role) public {\r\n        require(bytes(users[msg.sender].name).length == 0, \"Bu adres zaten kayitli!\");\r\n        users[msg.sender] = User(_name, _ipfsHash, _role, false);\r\n        userAddresses.push(msg.sender);\r\n        users[msg.sender].isVerified = false;\r\n\r\n    }\r\n\r\n    function updateUser(string memory _name, string memory _ipfsHash) public {\r\n        require(bytes(users[msg.sender].name).length != 0, \"Kayit bulunamadi!\");\r\n        users[msg.sender].name = _name;\r\n        users[msg.sender].ipfsHash = _ipfsHash;\r\n    }\r\n\r\n    function getUser(address _user) public view returns (string memory, string memory, Role, bool) {\r\n    User memory u = users[_user];\r\n    return (u.name, u.ipfsHash, u.role, u.isVerified);\r\n    }\r\n\r\n\r\n    function getAllUsers() public view returns (address[] memory) {\r\n        return userAddresses;\r\n    }\r\n\r\n    function setUserRole(address _user, Role _role) public onlyAdmin {\r\n        require(bytes(users[_user].name).length != 0, \"Kullanici bulunamadi!\");\r\n        users[_user].role = _role;\r\n    }\r\n\r\n    function getUserRole(address _user) public view returns (Role) {\r\n        return users[_user].role;\r\n    }\r\n\r\n    function verifyUser(address _user) public onlyOfficerOrAdmin {\r\n    require(bytes(users[_user].name).length != 0, \"Kullanici bulunamadi!\");\r\n    users[_user].isVerified = true;\r\n}\r\n\r\n}\r\n",
  "sourcePath": "C:\\Users\\emira\\OneDrive\\Masast\\Kimlik-Dogrulama\\contracts\\Identity.sol",
  "compiler": {
    "name": "solc",
    "version": "0.8.19+commit.7dd6d404.Emscripten.clang"
  },
  "schemaVersion": "3.4.16",
  "updatedAt": "2025-06-24T08:46:28.236Z",
  "networkType": "ethereum",
  "devdoc": {
    "kind": "dev",
    "methods": {},
    "version": 1
  },
  "userdoc": {
    "kind": "user",
    "methods": {},
    "version": 1
  }
}